:100000000202510200000000000000020000000097
:1000100000000002000000000000000200000000DC
:0E0020000000000200000000000000020000CE
:02002E000022AE
:0A0030007E097FE9DFFEDEFC0022FE
:06003A007F14DFFE00222E
:10004000E5185480F8630080E86004780080027846
:1000500001E81392B7E5185440F8630040E86004E3
:10006000780080027801E81392B6E5185420F8630E
:100070000020E86004780080027801E81392B5E57A
:10008000185410F8630010E86004780080027801CA
:10009000E81392B4E5086004780080027801E81360
:1000A0009284D286112EC286E5185408F86300089F
:1000B000E86004780080027801E81392B7E51854EC
:1000C00004F8630004E86004780080027801E81313
:1000D00092B6E5185402F8630002E86004780080E4
:1000E000027801E81392B5E5185401F8630001E8BD
:1000F0006004780080027801E81392B4E508600497
:10010000780080027801E8139284D286112EC2868C
:0B011000E508600411308002113A2263
:0D011B00C29985159920990280FBC2992296
:100128008019751580802E7515C0802975159480E5
:10013800247515D4801F751580801AE51564016033
:10014800E1E515640260E0E515640360DFE5156428
:100158000460DE80E1C3E5169401F8E51528F8850A
:1001680000157508018500181140750800851718D5
:0601780011407508012290
:10017E00C286C284113011301130C2B7C2B6C2B5B8
:10018E00C2B4D2B5D2B4D286112EC2861130D28666
:10019E00112EC2861130D286112EC2861130D2B5E2
:1001AE00C2B4D286112EC2861130C2B7C2B6C2B543
:1001BE00D2B5C2B4D286112EC286C2B5D2B7D286FD
:1001CE00112EC2861130C2B7D2B4D286112EC2867B
:1001DE00C2B4D286112EC2861130C2B4D286112E6E
:1001EE00C286D2B4D286112EC2861130C2B4D28645
:1001FE00112EC286D2B7D2B6D2B5D2B4D286112EB5
:08020E00C286113075080122BF
:08021600E493F608A3D9F922D4
:10021E0075091B750A01750B157512467513027556
:10022E001400750F4B751002751100759850758777
:08023E008075884075892022BB
:05024600C298A89922F6
:06024B00A298E433F82242
:10025100758180317E751801114075180E1140436A
:100261008780758DF5758BF5511E7D047E2B7F9DE5
:10027100DFFEDEFCDDFA750D01750E01514BE870F4
:1002810002612A514685000CD37461985009D3E567
:100291000C947A50028052D37441950C5009D3E5E5
:1002A1000C945A50028042D37430950C5009D3E516
:1002B1000C943950028032D37421950C5009D3E546
:1002C1000C942F50028022D3743A950C5009D3E537
:1002D1000C944050028012D3745B950C5009D3E505
:1002E1000C9460500280028012850C15311B850E22
:1002F10015850D16850C173128050DE50C640D705B
:100301001075150D311B050EE50D64016003750DAA
:1003110001E50C64087007751508311B150DE50C16
:0D032100647F700575157F311B417D80FEE6
:00000001FF
