:100000000202580200000000000000020000000090
:1000100000000002000000000000000200000000DC
:0E0020000000000200000000000000020000CE
:0A002E007E097FE9DFFEDEFC002200
:020038000022A4
:06003A007F14DFFE00222E
:10004000E5185480F8630080E86004780080027846
:1000500001E81392B7E5185440F8630040E86004E3
:10006000780080027801E81392B6E5185420F8630E
:100070000020E86004780080027801E81392B5E57A
:10008000185410F8630010E86004780080027801CA
:10009000E81392B4E5116004780080027801E81357
:1000A0009284D2861138C286E5185408F863000895
:1000B000E86004780080027801E81392B7E51854EC
:1000C00004F8630004E86004780080027801E81313
:1000D00092B6E5185402F8630002E86004780080E4
:1000E000027801E81392B5E5185401F8630001E8BD
:1000F0006004780080027801E81392B4E51160048E
:10010000780080027801E8139284D2861138C28682
:0B011000E5116004112E8002113A225C
:10011B008019751580802E7515C0802975159480F2
:10012B00247515D4801F751580801AE51564016040
:10013B00E1E515640260E0E515640360DFE5156435
:10014B000460DE80E1C3E5169401F8E51528F88517
:10015B0000157511018500181140751100851718D0
:06016B0011407511012294
:08017100E493F608A3D9F9227A
:0D017900C29985159920990280FBC2992238
:10018600C286C284112E112E112EC2B7C2B6C2B5B6
:10019600C2B4D2B5D2B4D2861138C286112ED28656
:1001A6001138C286112ED2861138C286112ED2B5CA
:1001B600C2B4D2861138C286112EC2B7C2B6C2B533
:1001C600D2B5C2B4D2861138C286C2B5D2B7D286EB
:1001D6001138C286112EC2B7D2B4D2861138C28661
:1001E600C2B4D2861138C286112EC2B4D286113854
:1001F600C286D2B4D2861138C286112EC2B4D28635
:100206001138C286D2B7D2B6D2B5D2B4D286113898
:08021600C286112E75110122B0
:07021E00750E01750F0122AE
:10022500750879750901750A15750B4D750C0275FB
:100235000D00751252751302751400759850758767
:080245008075884075892022B4
:05024D00C298A89922EF
:06025200A298E433F8223B
:10025800758180511E3186751801114075180E116F
:100268004075180F1140438780758DF5758BF551D2
:10027800257D047E2B7F9DDFFEDEFCDDFA5152E8F2
:1002880070028128514D850010D3742098504AD3AC
:10029800E510947A50438510153179C37411648040
:1002A800F8E50E6480985031850F15850E16851077
:1002B80017311B050EC374116480F8E50E6480982D
:1002C8004017C374106480F8E50F64809840057582
:1002D8000E108005750E01050FE510640D701D7573
:1002E800150D3179C374106480F8E50F6480985057
:1002F8000B050FE50E64016003750E01E510640837
:1003080070437515083179D374016480F8E50E647B
:100318008098400F150E850F15850E16751700313C
:100328001B8022D374016480F8E50F64809840151F
:10033800150F750E10850F15751610751700311BE2
:10034800750E01050FE510647F704575157F3179CD
:10035800C374106480F8E50E6480985011050E850A
:100368000F15850E16751700311B150E8022C374E4
:10037800106480F8E50F6480985015050F750E011C
:10038800850F15751601751700311B750E10150FA1
:10039800E510641870147515183179D374016480E8
:1003A800F8E50F6480984002150FE5106419701481
:1003B8007515193179C374106480F8E50F64809855
:1003C8005002050FE510641A702875151A3179C3A3
:1003D80074106480F8E50E6480985004050E80124D
:1003E800C374106480F8E50F6480985005050F7594
:1003F8000E01E510641B702875151B3179D3740143
:100408006480F8E50E6480984004150E8012D37459
:10041800016480F8E50F6480984005150F750E108B
:04042800418580FE8C
:00000001FF
