:1000000002012D02000000000000000200000000BC
:1000100000000002000000000000000200000000DC
:0E0020000000000200000000000000020000CE
:10002E00750800C3E5116480F8E5086480985004F3
:05003E00050880EF221F
:10004300E51054F0F5A0C284C285D2867511E8117B
:100053002EC2867511E8112E7804E510088002C3BC
:1000630033D8FCF978F0E958F5A0C284C285D2866A
:0D0073007511E8112EC286751110112E2294
:0C008000759850758920758DF5D28E2280
:0A008C0020980280FBC298A8992278
:10009600E50B54F0F5A0D284C285D28600C2867FD5
:1000A60003DFFE007804E50B088002C333D8FCF9B1
:1000B60078F0E958F5A0D284C285D28600C2867E41
:0900C600027F9DDFFEDEFC00223A
:0800CF00E493F608A3D9F9221D
:1000D7007E097F19DFFEDEFC0075100211437510E3
:1000E70028114375100C11437510011143751080C9
:0300F70011432290
:1000FA00750F00E50B450C70087480250DF50F800F
:10010A00127401650B70047400650C700674C025C6
:10011A000DF50F7511E8112E850F1011437511E8B1
:03012A00112E2271
:10012D007581801201A611D77511E8112E118075F8
:10013D0011E8112E7511E8112E750A00118C85002C
:10014D0009E8640D7013750A00750B00750C0075C8
:10015D000D00750E0011FA80E3E50A6410700E753E
:10016D000B01750C00750D00750E0011FA85090B4C
:08017D001196050A80C680FE00
:0E01A600783079217582857583011200CF2291
:10018500202020202020202020202020202020206A
:10019500202020202020202020202020202020205A
:0101A5000059
:00000001FF
