:100000000202510200000000000000020000000097
:1000100000000002000000000000000200000000DC
:0E0020000000000200000000000000020000CE
:02002E000022AE
:0A0030007E097FE9DFFEDEFC0022FE
:06003A007F14DFFE00222E
:10004000E5165480F8630080E86004780080027848
:1000500001E81392B7E5165440F8630040E86004E5
:10006000780080027801E81392B6E5165420F86310
:100070000020E86004780080027801E81392B5E57A
:10008000165410F8630010E86004780080027801CC
:10009000E81392B4E50F6004780080027801E81359
:1000A0009284D286112EC286E5165408F8630008A1
:1000B000E86004780080027801E81392B7E51654EE
:1000C00004F8630004E86004780080027801E81313
:1000D00092B6E5165402F8630002E86004780080E6
:1000E000027801E81392B5E5165401F8630001E8BF
:1000F0006004780080027801E81392B4E50F600490
:10010000780080027801E8139284D286112EC2868C
:0B011000E50F600411308002113A225C
:0D011B00C29985139920990280FBC2992298
:100128008019751380802E7513C0802975139480EB
:10013800247513D4801F751380801AE51364016039
:10014800E1E513640260E0E513640360DFE513642E
:100158000460DE80E1C3E5149401F8E51328F8850E
:100168000013750F018500161140750F00851516CF
:060178001140750F012289
:10017E00C286C284113011301130C2B7C2B6C2B5B8
:10018E00C2B4D2B5D2B4D286112EC2861130D28666
:10019E00112EC2861130D286112EC2861130D2B5E2
:1001AE00C2B4D286112EC2861130C2B7C2B6C2B543
:1001BE00D2B5C2B4D286112EC286C2B5D2B7D286FD
:1001CE00112EC2861130C2B7D2B4D286112EC2867B
:1001DE00C2B4D286112EC2861130C2B4D286112E6E
:1001EE00C286D2B4D286112EC2861130C2B4D28645
:1001FE00112EC286D2B7D2B6D2B5D2B4D286112EB5
:08020E00C2861130750F0122B8
:08021600E493F608A3D9F922D4
:10021E0075081B750901750A13750B46750C027569
:10022E000D0075104B75110275120075985075877B
:08023E008075884075892022BB
:05024600C298A89922F6
:06024B00A298E433F82242
:10025100758180317E751601114075160C11404370
:100261008780758DF5758BF5511E7EA37F1EDFFE90
:10027100DEFC00514BE8601A514685000E850013E3
:10028100311B7516011140751302751401850E1588
:06029100312880DF80FE31
:00000001FF
