:100000000201FD02000000000000000200000000EC
:1000100000000002000000000000000200000000DC
:0E0020000000000200000000000000020000CE
:02002E000022AE
:0A0030007E097FE9DFFEDEFC0022FE
:06003A007F14DFFE00222E
:10004000E52C5480F8630080E86004780080027832
:1000500001E81392B7E52C5440F8630040E86004CF
:10006000780080027801E81392B6E52C5420F863FA
:100070000020E86004780080027801E81392B5E57A
:100080002C5410F8630010E86004780080027801B6
:10009000E81392B4E52A6004780080027801E8133E
:1000A0009284D286112EC286E52C5408F86300088B
:1000B000E86004780080027801E81392B7E52C54D8
:1000C00004F8630004E86004780080027801E81313
:1000D00092B6E52C5402F8630002E86004780080D0
:1000E000027801E81392B5E52C5401F8630001E8A9
:1000F0006004780080027801E81392B4E52A600475
:10010000780080027801E8139284D286112EC2868C
:0B011000E52A600411308002113A2241
:0B011B00852B9920990280FBC29922DD
:0C012600752A00852B2C1140752A01223F
:10013200C286C284113011301130C2B7C2B6C2B504
:10014200C2B4D2B5D2B4D286112EC2861130D286B2
:10015200112EC2861130D286112EC2861130D2B52E
:10016200C2B4D286112EC2861130C2B7C2B6C2B58F
:10017200D2B5C2B4D286112EC286C2B5D2B7D28649
:10018200112EC2861130C2B7D2B4D286112EC286C7
:10019200C2B4D286112EC2861130C2B4D286112EBA
:1001A200C286D2B4D286112EC2861130C2B4D28691
:1001B200112EC286D2B7D2B6D2B5D2B4D286112E01
:0801C200C2861130752A0122EA
:0801CA00E493F608A3D9F92221
:1001D200752800C3E52B6480F8E5286480985004F4
:0501E200052880EF225A
:0A01E70020980280FBC298A899221C
:0C01F100759850758920758DF5D28E220E
:1001FD00758180752800C374206480F8E5286480BB
:10020D0098500B74082528F87620052880E831329F
:10021D00752C011140752C0C1140752B1031D231FC
:10022D00F1752B1031D231E785002985002B311B5B
:10023D00752BE831D285292B3126752BE831D280EB
:03024D00E580FE4B
:00000001FF
